{
  "contractName": "ExerciceSolution",
  "abi": [
    {
      "inputs": [],
      "stateMutability": "nonpayable",
      "type": "constructor"
    },
    {
      "anonymous": false,
      "inputs": [
        {
          "indexed": true,
          "internalType": "address",
          "name": "owner",
          "type": "address"
        },
        {
          "indexed": true,
          "internalType": "address",
          "name": "approved",
          "type": "address"
        },
        {
          "indexed": true,
          "internalType": "uint256",
          "name": "tokenId",
          "type": "uint256"
        }
      ],
      "name": "Approval",
      "type": "event"
    },
    {
      "anonymous": false,
      "inputs": [
        {
          "indexed": true,
          "internalType": "address",
          "name": "owner",
          "type": "address"
        },
        {
          "indexed": true,
          "internalType": "address",
          "name": "operator",
          "type": "address"
        },
        {
          "indexed": false,
          "internalType": "bool",
          "name": "approved",
          "type": "bool"
        }
      ],
      "name": "ApprovalForAll",
      "type": "event"
    },
    {
      "anonymous": false,
      "inputs": [
        {
          "indexed": false,
          "internalType": "uint256",
          "name": "sex",
          "type": "uint256"
        },
        {
          "indexed": false,
          "internalType": "uint256",
          "name": "legs",
          "type": "uint256"
        },
        {
          "indexed": false,
          "internalType": "bool",
          "name": "wings",
          "type": "bool"
        },
        {
          "indexed": false,
          "internalType": "string",
          "name": "name",
          "type": "string"
        }
      ],
      "name": "NewAnimal",
      "type": "event"
    },
    {
      "anonymous": false,
      "inputs": [
        {
          "indexed": true,
          "internalType": "address",
          "name": "from",
          "type": "address"
        },
        {
          "indexed": true,
          "internalType": "address",
          "name": "to",
          "type": "address"
        },
        {
          "indexed": true,
          "internalType": "uint256",
          "name": "tokenId",
          "type": "uint256"
        }
      ],
      "name": "Transfer",
      "type": "event"
    },
    {
      "inputs": [
        {
          "internalType": "uint256",
          "name": "",
          "type": "uint256"
        }
      ],
      "name": "animals",
      "outputs": [
        {
          "internalType": "uint256",
          "name": "sex",
          "type": "uint256"
        },
        {
          "internalType": "uint256",
          "name": "legs",
          "type": "uint256"
        },
        {
          "internalType": "bool",
          "name": "wings",
          "type": "bool"
        },
        {
          "internalType": "string",
          "name": "name",
          "type": "string"
        }
      ],
      "stateMutability": "view",
      "type": "function",
      "constant": true
    },
    {
      "inputs": [
        {
          "internalType": "address",
          "name": "to",
          "type": "address"
        },
        {
          "internalType": "uint256",
          "name": "tokenId",
          "type": "uint256"
        }
      ],
      "name": "approve",
      "outputs": [],
      "stateMutability": "nonpayable",
      "type": "function"
    },
    {
      "inputs": [
        {
          "internalType": "address",
          "name": "owner",
          "type": "address"
        }
      ],
      "name": "balanceOf",
      "outputs": [
        {
          "internalType": "uint256",
          "name": "",
          "type": "uint256"
        }
      ],
      "stateMutability": "view",
      "type": "function",
      "constant": true
    },
    {
      "inputs": [],
      "name": "baseURI",
      "outputs": [
        {
          "internalType": "string",
          "name": "",
          "type": "string"
        }
      ],
      "stateMutability": "view",
      "type": "function",
      "constant": true
    },
    {
      "inputs": [
        {
          "internalType": "uint256",
          "name": "tokenId",
          "type": "uint256"
        }
      ],
      "name": "getApproved",
      "outputs": [
        {
          "internalType": "address",
          "name": "",
          "type": "address"
        }
      ],
      "stateMutability": "view",
      "type": "function",
      "constant": true
    },
    {
      "inputs": [
        {
          "internalType": "uint256",
          "name": "",
          "type": "uint256"
        }
      ],
      "name": "idToOwner",
      "outputs": [
        {
          "internalType": "address",
          "name": "",
          "type": "address"
        }
      ],
      "stateMutability": "view",
      "type": "function",
      "constant": true
    },
    {
      "inputs": [
        {
          "internalType": "address",
          "name": "owner",
          "type": "address"
        },
        {
          "internalType": "address",
          "name": "operator",
          "type": "address"
        }
      ],
      "name": "isApprovedForAll",
      "outputs": [
        {
          "internalType": "bool",
          "name": "",
          "type": "bool"
        }
      ],
      "stateMutability": "view",
      "type": "function",
      "constant": true
    },
    {
      "inputs": [
        {
          "internalType": "address",
          "name": "",
          "type": "address"
        }
      ],
      "name": "isAuthorized",
      "outputs": [
        {
          "internalType": "bool",
          "name": "",
          "type": "bool"
        }
      ],
      "stateMutability": "view",
      "type": "function",
      "constant": true
    },
    {
      "inputs": [
        {
          "internalType": "uint256",
          "name": "",
          "type": "uint256"
        }
      ],
      "name": "isForSale",
      "outputs": [
        {
          "internalType": "bool",
          "name": "",
          "type": "bool"
        }
      ],
      "stateMutability": "view",
      "type": "function",
      "constant": true
    },
    {
      "inputs": [],
      "name": "name",
      "outputs": [
        {
          "internalType": "string",
          "name": "",
          "type": "string"
        }
      ],
      "stateMutability": "view",
      "type": "function",
      "constant": true
    },
    {
      "inputs": [
        {
          "internalType": "uint256",
          "name": "tokenId",
          "type": "uint256"
        }
      ],
      "name": "ownerOf",
      "outputs": [
        {
          "internalType": "address",
          "name": "",
          "type": "address"
        }
      ],
      "stateMutability": "view",
      "type": "function",
      "constant": true
    },
    {
      "inputs": [
        {
          "internalType": "address",
          "name": "",
          "type": "address"
        }
      ],
      "name": "ownerToId",
      "outputs": [
        {
          "internalType": "uint256",
          "name": "",
          "type": "uint256"
        }
      ],
      "stateMutability": "view",
      "type": "function",
      "constant": true
    },
    {
      "inputs": [
        {
          "internalType": "uint256",
          "name": "",
          "type": "uint256"
        }
      ],
      "name": "priceOfAnimal",
      "outputs": [
        {
          "internalType": "uint256",
          "name": "",
          "type": "uint256"
        }
      ],
      "stateMutability": "view",
      "type": "function",
      "constant": true
    },
    {
      "inputs": [
        {
          "internalType": "address",
          "name": "from",
          "type": "address"
        },
        {
          "internalType": "address",
          "name": "to",
          "type": "address"
        },
        {
          "internalType": "uint256",
          "name": "tokenId",
          "type": "uint256"
        }
      ],
      "name": "safeTransferFrom",
      "outputs": [],
      "stateMutability": "nonpayable",
      "type": "function"
    },
    {
      "inputs": [
        {
          "internalType": "address",
          "name": "from",
          "type": "address"
        },
        {
          "internalType": "address",
          "name": "to",
          "type": "address"
        },
        {
          "internalType": "uint256",
          "name": "tokenId",
          "type": "uint256"
        },
        {
          "internalType": "bytes",
          "name": "_data",
          "type": "bytes"
        }
      ],
      "name": "safeTransferFrom",
      "outputs": [],
      "stateMutability": "nonpayable",
      "type": "function"
    },
    {
      "inputs": [
        {
          "internalType": "address",
          "name": "operator",
          "type": "address"
        },
        {
          "internalType": "bool",
          "name": "approved",
          "type": "bool"
        }
      ],
      "name": "setApprovalForAll",
      "outputs": [],
      "stateMutability": "nonpayable",
      "type": "function"
    },
    {
      "inputs": [
        {
          "internalType": "bytes4",
          "name": "interfaceId",
          "type": "bytes4"
        }
      ],
      "name": "supportsInterface",
      "outputs": [
        {
          "internalType": "bool",
          "name": "",
          "type": "bool"
        }
      ],
      "stateMutability": "view",
      "type": "function",
      "constant": true
    },
    {
      "inputs": [],
      "name": "symbol",
      "outputs": [
        {
          "internalType": "string",
          "name": "",
          "type": "string"
        }
      ],
      "stateMutability": "view",
      "type": "function",
      "constant": true
    },
    {
      "inputs": [
        {
          "internalType": "uint256",
          "name": "index",
          "type": "uint256"
        }
      ],
      "name": "tokenByIndex",
      "outputs": [
        {
          "internalType": "uint256",
          "name": "",
          "type": "uint256"
        }
      ],
      "stateMutability": "view",
      "type": "function",
      "constant": true
    },
    {
      "inputs": [
        {
          "internalType": "uint256",
          "name": "tokenId",
          "type": "uint256"
        }
      ],
      "name": "tokenURI",
      "outputs": [
        {
          "internalType": "string",
          "name": "",
          "type": "string"
        }
      ],
      "stateMutability": "view",
      "type": "function",
      "constant": true
    },
    {
      "inputs": [
        {
          "internalType": "address",
          "name": "from",
          "type": "address"
        },
        {
          "internalType": "address",
          "name": "to",
          "type": "address"
        },
        {
          "internalType": "uint256",
          "name": "tokenId",
          "type": "uint256"
        }
      ],
      "name": "transferFrom",
      "outputs": [],
      "stateMutability": "nonpayable",
      "type": "function"
    },
    {
      "inputs": [
        {
          "internalType": "address",
          "name": "account",
          "type": "address"
        }
      ],
      "name": "isBreeder",
      "outputs": [
        {
          "internalType": "bool",
          "name": "",
          "type": "bool"
        }
      ],
      "stateMutability": "nonpayable",
      "type": "function"
    },
    {
      "inputs": [],
      "name": "registrationPrice",
      "outputs": [
        {
          "internalType": "uint256",
          "name": "",
          "type": "uint256"
        }
      ],
      "stateMutability": "nonpayable",
      "type": "function"
    },
    {
      "inputs": [],
      "name": "registerMeAsBreeder",
      "outputs": [],
      "stateMutability": "payable",
      "type": "function",
      "payable": true
    },
    {
      "inputs": [],
      "name": "totalSupply",
      "outputs": [
        {
          "internalType": "uint256",
          "name": "",
          "type": "uint256"
        }
      ],
      "stateMutability": "view",
      "type": "function",
      "constant": true
    },
    {
      "inputs": [
        {
          "internalType": "uint256",
          "name": "sex",
          "type": "uint256"
        },
        {
          "internalType": "uint256",
          "name": "legs",
          "type": "uint256"
        },
        {
          "internalType": "bool",
          "name": "wings",
          "type": "bool"
        },
        {
          "internalType": "string",
          "name": "name",
          "type": "string"
        }
      ],
      "name": "declareAnimal",
      "outputs": [
        {
          "internalType": "uint256",
          "name": "",
          "type": "uint256"
        }
      ],
      "stateMutability": "nonpayable",
      "type": "function"
    },
    {
      "inputs": [
        {
          "internalType": "uint256",
          "name": "animalNumber",
          "type": "uint256"
        }
      ],
      "name": "getAnimalCharacteristics",
      "outputs": [
        {
          "internalType": "string",
          "name": "_name",
          "type": "string"
        },
        {
          "internalType": "bool",
          "name": "_wings",
          "type": "bool"
        },
        {
          "internalType": "uint256",
          "name": "_legs",
          "type": "uint256"
        },
        {
          "internalType": "uint256",
          "name": "_sex",
          "type": "uint256"
        }
      ],
      "stateMutability": "nonpayable",
      "type": "function"
    },
    {
      "inputs": [
        {
          "internalType": "uint256",
          "name": "animalNumber",
          "type": "uint256"
        }
      ],
      "name": "declareDeadAnimal",
      "outputs": [],
      "stateMutability": "nonpayable",
      "type": "function"
    },
    {
      "inputs": [
        {
          "internalType": "address",
          "name": "owner",
          "type": "address"
        },
        {
          "internalType": "uint256",
          "name": "index",
          "type": "uint256"
        }
      ],
      "name": "tokenOfOwnerByIndex",
      "outputs": [
        {
          "internalType": "uint256",
          "name": "",
          "type": "uint256"
        }
      ],
      "stateMutability": "view",
      "type": "function",
      "constant": true
    },
    {
      "inputs": [
        {
          "internalType": "uint256",
          "name": "animalNumber",
          "type": "uint256"
        }
      ],
      "name": "isAnimalForSale",
      "outputs": [
        {
          "internalType": "bool",
          "name": "",
          "type": "bool"
        }
      ],
      "stateMutability": "view",
      "type": "function",
      "constant": true
    },
    {
      "inputs": [
        {
          "internalType": "uint256",
          "name": "animalNumber",
          "type": "uint256"
        }
      ],
      "name": "animalPrice",
      "outputs": [
        {
          "internalType": "uint256",
          "name": "",
          "type": "uint256"
        }
      ],
      "stateMutability": "view",
      "type": "function",
      "constant": true
    },
    {
      "inputs": [
        {
          "internalType": "uint256",
          "name": "animalNumber",
          "type": "uint256"
        }
      ],
      "name": "buyAnimal",
      "outputs": [],
      "stateMutability": "payable",
      "type": "function",
      "payable": true
    },
    {
      "inputs": [
        {
          "internalType": "uint256",
          "name": "animalNumber",
          "type": "uint256"
        },
        {
          "internalType": "uint256",
          "name": "price",
          "type": "uint256"
        }
      ],
      "name": "offerForSale",
      "outputs": [],
      "stateMutability": "nonpayable",
      "type": "function"
    },
    {
      "inputs": [
        {
          "internalType": "uint256",
          "name": "sex",
          "type": "uint256"
        },
        {
          "internalType": "uint256",
          "name": "legs",
          "type": "uint256"
        },
        {
          "internalType": "bool",
          "name": "wings",
          "type": "bool"
        },
        {
          "internalType": "string",
          "name": "name",
          "type": "string"
        },
        {
          "internalType": "uint256",
          "name": "parent1",
          "type": "uint256"
        },
        {
          "internalType": "uint256",
          "name": "parent2",
          "type": "uint256"
        }
      ],
      "name": "declareAnimalWithParents",
      "outputs": [
        {
          "internalType": "uint256",
          "name": "",
          "type": "uint256"
        }
      ],
      "stateMutability": "nonpayable",
      "type": "function"
    },
    {
      "inputs": [
        {
          "internalType": "uint256",
          "name": "animalNumber",
          "type": "uint256"
        }
      ],
      "name": "getParents",
      "outputs": [
        {
          "internalType": "uint256",
          "name": "",
          "type": "uint256"
        },
        {
          "internalType": "uint256",
          "name": "",
          "type": "uint256"
        }
      ],
      "stateMutability": "nonpayable",
      "type": "function"
    },
    {
      "inputs": [
        {
          "internalType": "uint256",
          "name": "animalNumber",
          "type": "uint256"
        }
      ],
      "name": "canReproduce",
      "outputs": [
        {
          "internalType": "bool",
          "name": "",
          "type": "bool"
        }
      ],
      "stateMutability": "nonpayable",
      "type": "function"
    },
    {
      "inputs": [
        {
          "internalType": "uint256",
          "name": "animalNumber",
          "type": "uint256"
        }
      ],
      "name": "reproductionPrice",
      "outputs": [
        {
          "internalType": "uint256",
          "name": "",
          "type": "uint256"
        }
      ],
      "stateMutability": "view",
      "type": "function",
      "constant": true
    },
    {
      "inputs": [
        {
          "internalType": "uint256",
          "name": "animalNumber",
          "type": "uint256"
        },
        {
          "internalType": "uint256",
          "name": "priceOfReproduction",
          "type": "uint256"
        }
      ],
      "name": "offerForReproduction",
      "outputs": [
        {
          "internalType": "uint256",
          "name": "",
          "type": "uint256"
        }
      ],
      "stateMutability": "nonpayable",
      "type": "function"
    },
    {
      "inputs": [
        {
          "internalType": "uint256",
          "name": "animalNumber",
          "type": "uint256"
        }
      ],
      "name": "authorizedBreederToReproduce",
      "outputs": [
        {
          "internalType": "address",
          "name": "",
          "type": "address"
        }
      ],
      "stateMutability": "nonpayable",
      "type": "function"
    },
    {
      "inputs": [
        {
          "internalType": "uint256",
          "name": "animalNumber",
          "type": "uint256"
        }
      ],
      "name": "payForReproduction",
      "outputs": [],
      "stateMutability": "payable",
      "type": "function",
      "payable": true
    }
  ],
  "bytecode": "0x60806040523480156200001157600080fd5b506040518060400160405280600881526020017f4c756361734e46540000000000000000000000000000000000000000000000008152506040518060400160405280600381526020017f4c46540000000000000000000000000000000000000000000000000000000000815250620000966301ffc9a760e01b6200011860201b60201c565b8160069080519060200190620000ae92919062000221565b508060079080519060200190620000c792919062000221565b50620000e06380ac58cd60e01b6200011860201b60201c565b620000f8635b5e139f60e01b6200011860201b60201c565b6200011063780e9d6360e01b6200011860201b60201c565b5050620002d0565b63ffffffff60e01b817bffffffffffffffffffffffffffffffffffffffffffffffffffffffff19161415620001b5576040517f08c379a000000000000000000000000000000000000000000000000000000000815260040180806020018281038252601c8152602001807f4552433136353a20696e76616c696420696e746572666163652069640000000081525060200191505060405180910390fd5b6001600080837bffffffffffffffffffffffffffffffffffffffffffffffffffffffff19167bffffffffffffffffffffffffffffffffffffffffffffffffffffffff1916815260200190815260200160002060006101000a81548160ff02191690831515021790555050565b828054600181600116156101000203166002900490600052602060002090601f016020900481019282601f106200026457805160ff191683800117855562000295565b8280016001018555821562000295579182015b828111156200029457825182559160200191906001019062000277565b5b509050620002a49190620002a8565b5090565b620002cd91905b80821115620002c9576000816000905550600101620002af565b5090565b90565b6140f580620002e06000396000f3fe60806040526004361061023b5760003560e01c806370a082311161012e578063b88d4fde116100ab578063e729e3a41161006f578063e729e3a4146111d8578063e985e9c51461123d578063ec897772146112c6578063fe9fbb8014611301578063ff36ed981461136a5761023b565b8063b88d4fde14610edb578063bfc206ed14610fed578063c5f51f7314611068578063c7b9cb0b146110bb578063c87b56dd146111245761023b565b8063998dd3ca116100f2578063998dd3ca14610c3c578063a0c32c8f14610d09578063a22cb46514610d62578063aa26e2ed14610dbf578063b75e075014610e0e5761023b565b806370a08231146109e157806377386df314610a465780638546d00214610a8b578063929c13e314610ade57806395d89b4114610bac5761023b565b80632a4672b2116101bc57806342842e0e1161018057806342842e0e146107b95780634abda8c8146108345780634f6ccce7146108875780636352211e146108d65780636c0360eb146109515761023b565b80632a4672b2146105e85780632f745c591461063757806332b0f376146106a65780633573dbd11461076057806341d30bae146107af5761023b565b80631a14e94a116102035780631a14e94a14610443578063216586581461047157806323b872dd1461049c578063242a00871461051757806327aa8f311461056d5761023b565b806301ffc9a71461024057806306fdde03146102b2578063081812fc14610342578063095ea7b3146103bd57806318160ddd14610418575b600080fd5b34801561024c57600080fd5b506102986004803603602081101561026357600080fd5b8101908080357bffffffffffffffffffffffffffffffffffffffffffffffffffffffff19169060200190929190505050611398565b604051808215151515815260200191505060405180910390f35b3480156102be57600080fd5b506102c76113ff565b6040518080602001828103825283818151815260200191508051906020019080838360005b838110156103075780820151818401526020810190506102ec565b50505050905090810190601f1680156103345780820380516001836020036101000a031916815260200191505b509250505060405180910390f35b34801561034e57600080fd5b5061037b6004803603602081101561036557600080fd5b81019080803590602001909291905050506114a1565b604051808273ffffffffffffffffffffffffffffffffffffffff1673ffffffffffffffffffffffffffffffffffffffff16815260200191505060405180910390f35b3480156103c957600080fd5b50610416600480360360408110156103e057600080fd5b81019080803573ffffffffffffffffffffffffffffffffffffffff1690602001909291908035906020019092919050505061153c565b005b34801561042457600080fd5b5061042d611680565b6040518082815260200191505060405180910390f35b61046f6004803603602081101561045957600080fd5b8101908080359060200190929190505050611689565b005b34801561047d57600080fd5b50610486611720565b6040518082815260200191505060405180910390f35b3480156104a857600080fd5b50610515600480360360608110156104bf57600080fd5b81019080803573ffffffffffffffffffffffffffffffffffffffff169060200190929190803573ffffffffffffffffffffffffffffffffffffffff16906020019092919080359060200190929190505050611729565b005b34801561052357600080fd5b506105506004803603602081101561053a57600080fd5b810190808035906020019092919050505061179f565b604051808381526020018281526020019250505060405180910390f35b34801561057957600080fd5b506105a66004803603602081101561059057600080fd5b81019080803590602001909291905050506117a7565b604051808273ffffffffffffffffffffffffffffffffffffffff1673ffffffffffffffffffffffffffffffffffffffff16815260200191505060405180910390f35b3480156105f457600080fd5b506106216004803603602081101561060b57600080fd5b81019080803590602001909291905050506117ae565b6040518082815260200191505060405180910390f35b34801561064357600080fd5b506106906004803603604081101561065a57600080fd5b81019080803573ffffffffffffffffffffffffffffffffffffffff169060200190929190803590602001909291905050506117b5565b6040518082815260200191505060405180910390f35b3480156106b257600080fd5b5061074a600480360360808110156106c957600080fd5b8101908080359060200190929190803590602001909291908035151590602001909291908035906020019064010000000081111561070657600080fd5b82018360208201111561071857600080fd5b8035906020019184600183028401116401000000008311171561073a57600080fd5b90919293919293905050506117ff565b6040518082815260200191505060405180910390f35b34801561076c57600080fd5b506107996004803603602081101561078357600080fd5b8101908080359060200190929190505050611a7c565b6040518082815260200191505060405180910390f35b6107b7611a99565b005b3480156107c557600080fd5b50610832600480360360608110156107dc57600080fd5b81019080803573ffffffffffffffffffffffffffffffffffffffff169060200190929190803573ffffffffffffffffffffffffffffffffffffffff16906020019092919080359060200190929190505050611b00565b005b34801561084057600080fd5b5061086d6004803603602081101561085757600080fd5b8101908080359060200190929190505050611b20565b604051808215151515815260200191505060405180910390f35b34801561089357600080fd5b506108c0600480360360208110156108aa57600080fd5b8101908080359060200190929190505050611b27565b6040518082815260200191505060405180910390f35b3480156108e257600080fd5b5061090f600480360360208110156108f957600080fd5b8101908080359060200190929190505050611b4a565b604051808273ffffffffffffffffffffffffffffffffffffffff1673ffffffffffffffffffffffffffffffffffffffff16815260200191505060405180910390f35b34801561095d57600080fd5b50610966611b81565b6040518080602001828103825283818151815260200191508051906020019080838360005b838110156109a657808201518184015260208101905061098b565b50505050905090810190601f1680156109d35780820380516001836020036101000a031916815260200191505b509250505060405180910390f35b3480156109ed57600080fd5b50610a3060048036036020811015610a0457600080fd5b81019080803573ffffffffffffffffffffffffffffffffffffffff169060200190929190505050611c23565b6040518082815260200191505060405180910390f35b348015610a5257600080fd5b50610a8960048036036040811015610a6957600080fd5b810190808035906020019092919080359060200190929190505050611cf8565b005b348015610a9757600080fd5b50610ac460048036036020811015610aae57600080fd5b8101908080359060200190929190505050611dab565b604051808215151515815260200191505060405180910390f35b348015610aea57600080fd5b50610b96600480360360c0811015610b0157600080fd5b81019080803590602001909291908035906020019092919080351515906020019092919080359060200190640100000000811115610b3e57600080fd5b820183602082011115610b5057600080fd5b80359060200191846001830284011164010000000083111715610b7257600080fd5b90919293919293908035906020019092919080359060200190929190505050611dcb565b6040518082815260200191505060405180910390f35b348015610bb857600080fd5b50610bc1611dd8565b6040518080602001828103825283818151815260200191508051906020019080838360005b83811015610c01578082015181840152602081019050610be6565b50505050905090810190601f168015610c2e5780820380516001836020036101000a031916815260200191505b509250505060405180910390f35b348015610c4857600080fd5b50610c7560048036036020811015610c5f57600080fd5b8101908080359060200190929190505050611e7a565b604051808581526020018481526020018315151515815260200180602001828103825283818151815260200191508051906020019080838360005b83811015610ccb578082015181840152602081019050610cb0565b50505050905090810190601f168015610cf85780820380516001836020036101000a031916815260200191505b509550505050505060405180910390f35b348015610d1557600080fd5b50610d4c60048036036040811015610d2c57600080fd5b810190808035906020019092919080359060200190929190505050611f5c565b6040518082815260200191505060405180910390f35b348015610d6e57600080fd5b50610dbd60048036036040811015610d8557600080fd5b81019080803573ffffffffffffffffffffffffffffffffffffffff169060200190929190803515159060200190929190505050611f64565b005b348015610dcb57600080fd5b50610df860048036036020811015610de257600080fd5b810190808035906020019092919050505061211c565b6040518082815260200191505060405180910390f35b348015610e1a57600080fd5b50610e4760048036036020811015610e3157600080fd5b8101908080359060200190929190505050612134565b604051808060200185151515158152602001848152602001838152602001828103825286818151815260200191508051906020019080838360005b83811015610e9d578082015181840152602081019050610e82565b50505050905090810190601f168015610eca5780820380516001836020036101000a031916815260200191505b509550505050505060405180910390f35b348015610ee757600080fd5b50610feb60048036036080811015610efe57600080fd5b81019080803573ffffffffffffffffffffffffffffffffffffffff169060200190929190803573ffffffffffffffffffffffffffffffffffffffff1690602001909291908035906020019092919080359060200190640100000000811115610f6557600080fd5b820183602082011115610f7757600080fd5b80359060200191846001830284011164010000000083111715610f9957600080fd5b91908080601f016020809104026020016040519081016040528093929190818152602001838380828437600081840152601f19601f820116905080830192505050505050509192919290505050612277565b005b348015610ff957600080fd5b506110266004803603602081101561101057600080fd5b81019080803590602001909291905050506122ef565b604051808273ffffffffffffffffffffffffffffffffffffffff1673ffffffffffffffffffffffffffffffffffffffff16815260200191505060405180910390f35b34801561107457600080fd5b506110a16004803603602081101561108b57600080fd5b8101908080359060200190929190505050612322565b604051808215151515815260200191505060405180910390f35b3480156110c757600080fd5b5061110a600480360360208110156110de57600080fd5b81019080803573ffffffffffffffffffffffffffffffffffffffff16906020019092919050505061234c565b604051808215151515815260200191505060405180910390f35b34801561113057600080fd5b5061115d6004803603602081101561114757600080fd5b81019080803590602001909291905050506123fa565b6040518080602001828103825283818151815260200191508051906020019080838360005b8381101561119d578082015181840152602081019050611182565b50505050905090810190601f1680156111ca5780820380516001836020036101000a031916815260200191505b509250505060405180910390f35b3480156111e457600080fd5b50611227600480360360208110156111fb57600080fd5b81019080803573ffffffffffffffffffffffffffffffffffffffff1690602001909291905050506126cb565b6040518082815260200191505060405180910390f35b34801561124957600080fd5b506112ac6004803603604081101561126057600080fd5b81019080803573ffffffffffffffffffffffffffffffffffffffff169060200190929190803573ffffffffffffffffffffffffffffffffffffffff1690602001909291905050506126e3565b604051808215151515815260200191505060405180910390f35b3480156112d257600080fd5b506112ff600480360360208110156112e957600080fd5b8101908080359060200190929190505050612777565b005b34801561130d57600080fd5b506113506004803603602081101561132457600080fd5b81019080803573ffffffffffffffffffffffffffffffffffffffff169060200190929190505050612902565b604051808215151515815260200191505060405180910390f35b6113966004803603602081101561138057600080fd5b8101908080359060200190929190505050612922565b005b6000806000837bffffffffffffffffffffffffffffffffffffffffffffffffffffffff19167bffffffffffffffffffffffffffffffffffffffffffffffffffffffff1916815260200190815260200160002060009054906101000a900460ff169050919050565b606060068054600181600116156101000203166002900480601f0160208091040260200160405190810160405280929190818152602001828054600181600116156101000203166002900480156114975780601f1061146c57610100808354040283529160200191611497565b820191906000526020600020905b81548152906001019060200180831161147a57829003601f168201915b5050505050905090565b60006114ac82612925565b611501576040517f08c379a000000000000000000000000000000000000000000000000000000000815260040180806020018281038252602c815260200180613fea602c913960400191505060405180910390fd5b6004600083815260200190815260200160002060009054906101000a900473ffffffffffffffffffffffffffffffffffffffff169050919050565b600061154782611b4a565b90508073ffffffffffffffffffffffffffffffffffffffff168373ffffffffffffffffffffffffffffffffffffffff1614156115ce576040517f08c379a000000000000000000000000000000000000000000000000000000000815260040180806020018281038252602181526020018061406e6021913960400191505060405180910390fd5b8073ffffffffffffffffffffffffffffffffffffffff166115ed612942565b73ffffffffffffffffffffffffffffffffffffffff16148061161c575061161b81611616612942565b6126e3565b5b611671576040517f08c379a0000000000000000000000000000000000000000000000000000000008152600401808060200182810382526038815260200180613f3d6038913960400191505060405180910390fd5b61167b838361294a565b505050565b6000600a905090565b60011515600e600083815260200190815260200160002060009054906101000a900460ff161515146116ba57600080fd5b34600d600083815260200190815260200160002054146116d957600080fd5b6000600c600083815260200190815260200160002060009054906101000a900473ffffffffffffffffffffffffffffffffffffffff16905061171c813384612a03565b5050565b60006001905090565b61173a611734612942565b82612c46565b61178f576040517f08c379a000000000000000000000000000000000000000000000000000000000815260040180806020018281038252603181526020018061408f6031913960400191505060405180910390fd5b61179a838383612a03565b505050565b600080915091565b6000919050565b6000919050565b6000600b60008473ffffffffffffffffffffffffffffffffffffffff1673ffffffffffffffffffffffffffffffffffffffff16815260200190815260200160002054905092915050565b600060011515600a60003373ffffffffffffffffffffffffffffffffffffffff1673ffffffffffffffffffffffffffffffffffffffff16815260200190815260200160002060009054906101000a900460ff1615151461185e57600080fd5b600f6040518060800160405280888152602001878152602001861515815260200185858080601f016020809104026020016040519081016040528093929190818152602001838380828437600081840152601f19601f820116905080830192505050505050508152509080600181540180825580915050600190039060005260206000209060040201600090919091909150600082015181600001556020820151816001015560408201518160020160006101000a81548160ff0219169083151502179055506060820151816003019080519060200190611940929190613d27565b50505060006001600f8054905003905061195a3382612d3a565b80600b60003373ffffffffffffffffffffffffffffffffffffffff1673ffffffffffffffffffffffffffffffffffffffff1681526020019081526020016000208190555033600c600083815260200190815260200160002060006101000a81548173ffffffffffffffffffffffffffffffffffffffff021916908373ffffffffffffffffffffffffffffffffffffffff1602179055507f43790c33fe1e4a333521ce19fba7ae0711dbf96754513d6cc45df9f95968db1087878787876040518086815260200185815260200184151515158152602001806020018281038252848482818152602001925080828437600081840152601f19601f820116905080830192505050965050505050505060405180910390a18091505095945050505050565b6000600d6000838152602001908152602001600020549050919050565b60013414611aa657600080fd5b6001600a60003373ffffffffffffffffffffffffffffffffffffffff1673ffffffffffffffffffffffffffffffffffffffff16815260200190815260200160002060006101000a81548160ff021916908315150217905550565b611b1b83838360405180602001604052806000815250612277565b505050565b6000919050565b600080611b3e836002612f2e90919063ffffffff16565b50905080915050919050565b6000611b7a82604051806060016040528060298152602001613f9f602991396002612f5d9092919063ffffffff16565b9050919050565b606060098054600181600116156101000203166002900480601f016020809104026020016040519081016040528092919081815260200182805460018160011615610100020316600290048015611c195780601f10611bee57610100808354040283529160200191611c19565b820191906000526020600020905b815481529060010190602001808311611bfc57829003601f168201915b5050505050905090565b60008073ffffffffffffffffffffffffffffffffffffffff168273ffffffffffffffffffffffffffffffffffffffff161415611caa576040517f08c379a000000000000000000000000000000000000000000000000000000000815260040180806020018281038252602a815260200180613f75602a913960400191505060405180910390fd5b611cf1600160008473ffffffffffffffffffffffffffffffffffffffff1673ffffffffffffffffffffffffffffffffffffffff168152602001908152602001600020612f7c565b9050919050565b600c600083815260200190815260200160002060009054906101000a900473ffffffffffffffffffffffffffffffffffffffff1673ffffffffffffffffffffffffffffffffffffffff163373ffffffffffffffffffffffffffffffffffffffff1614611d6357600080fd5b80600d6000848152602001908152602001600020819055506001600e600084815260200190815260200160002060006101000a81548160ff0219169083151502179055505050565b600e6020528060005260406000206000915054906101000a900460ff1681565b6000979650505050505050565b606060078054600181600116156101000203166002900480601f016020809104026020016040519081016040528092919081815260200182805460018160011615610100020316600290048015611e705780601f10611e4557610100808354040283529160200191611e70565b820191906000526020600020905b815481529060010190602001808311611e5357829003601f168201915b5050505050905090565b600f8181548110611e8757fe5b90600052602060002090600402016000915090508060000154908060010154908060020160009054906101000a900460ff1690806003018054600181600116156101000203166002900480601f016020809104026020016040519081016040528092919081815260200182805460018160011615610100020316600290048015611f525780601f10611f2757610100808354040283529160200191611f52565b820191906000526020600020905b815481529060010190602001808311611f3557829003601f168201915b5050505050905084565b600092915050565b611f6c612942565b73ffffffffffffffffffffffffffffffffffffffff168273ffffffffffffffffffffffffffffffffffffffff16141561200d576040517f08c379a00000000000000000000000000000000000000000000000000000000081526004018080602001828103825260198152602001807f4552433732313a20617070726f766520746f2063616c6c65720000000000000081525060200191505060405180910390fd5b806005600061201a612942565b73ffffffffffffffffffffffffffffffffffffffff1673ffffffffffffffffffffffffffffffffffffffff16815260200190815260200160002060008473ffffffffffffffffffffffffffffffffffffffff1673ffffffffffffffffffffffffffffffffffffffff16815260200190815260200160002060006101000a81548160ff0219169083151502179055508173ffffffffffffffffffffffffffffffffffffffff166120c7612942565b73ffffffffffffffffffffffffffffffffffffffff167f17307eab39ab6107e8899845ad3d59bd9653f200f220920489ca2b5937696c3183604051808215151515815260200191505060405180910390a35050565b600d6020528060005260406000206000915090505481565b60606000806000600f858154811061214857fe5b90600052602060002090600402016003018054600181600116156101000203166002900480601f0160208091040260200160405190810160405280929190818152602001828054600181600116156101000203166002900480156121ed5780601f106121c2576101008083540402835291602001916121ed565b820191906000526020600020905b8154815290600101906020018083116121d057829003601f168201915b50505050509350600f858154811061220157fe5b906000526020600020906004020160020160009054906101000a900460ff169250600f858154811061222f57fe5b9060005260206000209060040201600101549150600f858154811061225057fe5b90600052602060002090600402016000015490508383838393509350935093509193509193565b612288612282612942565b83612c46565b6122dd576040517f08c379a000000000000000000000000000000000000000000000000000000000815260040180806020018281038252603181526020018061408f6031913960400191505060405180910390fd5b6122e984848484612f91565b50505050565b600c6020528060005260406000206000915054906101000a900473ffffffffffffffffffffffffffffffffffffffff1681565b6000600e600083815260200190815260200160002060009054906101000a900460ff169050919050565b60006001600a60008473ffffffffffffffffffffffffffffffffffffffff1673ffffffffffffffffffffffffffffffffffffffff16815260200190815260200160002060006101000a81548160ff021916908315150217905550600a60008373ffffffffffffffffffffffffffffffffffffffff1673ffffffffffffffffffffffffffffffffffffffff16815260200190815260200160002060009054906101000a900460ff169050919050565b606061240582612925565b61245a576040517f08c379a000000000000000000000000000000000000000000000000000000000815260040180806020018281038252602f81526020018061403f602f913960400191505060405180910390fd5b6060600860008481526020019081526020016000208054600181600116156101000203166002900480601f0160208091040260200160405190810160405280929190818152602001828054600181600116156101000203166002900480156125035780601f106124d857610100808354040283529160200191612503565b820191906000526020600020905b8154815290600101906020018083116124e657829003601f168201915b505050505090506060612514611b81565b905060008151141561252a5781925050506126c6565b6000825111156125fb5780826040516020018083805190602001908083835b6020831061256c5780518252602082019150602081019050602083039250612549565b6001836020036101000a03801982511681845116808217855250505050505090500182805190602001908083835b602083106125bd578051825260208201915060208101905060208303925061259a565b6001836020036101000a03801982511681845116808217855250505050505090500192505050604051602081830303815290604052925050506126c6565b8061260585613003565b6040516020018083805190602001908083835b6020831061263b5780518252602082019150602081019050602083039250612618565b6001836020036101000a03801982511681845116808217855250505050505090500182805190602001908083835b6020831061268c5780518252602082019150602081019050602083039250612669565b6001836020036101000a03801982511681845116808217855250505050505090500192505050604051602081830303815290604052925050505b919050565b600b6020528060005260406000206000915090505481565b6000600560008473ffffffffffffffffffffffffffffffffffffffff1673ffffffffffffffffffffffffffffffffffffffff16815260200190815260200160002060008373ffffffffffffffffffffffffffffffffffffffff1673ffffffffffffffffffffffffffffffffffffffff16815260200190815260200160002060009054906101000a900460ff16905092915050565b600c600082815260200190815260200160002060009054906101000a900473ffffffffffffffffffffffffffffffffffffffff1673ffffffffffffffffffffffffffffffffffffffff163373ffffffffffffffffffffffffffffffffffffffff16146127e257600080fd5b6127eb81613133565b60405180602001604052806000815250600f828154811061280857fe5b9060005260206000209060040201600301908051906020019061282c929190613da7565b506000600f828154811061283c57fe5b906000526020600020906004020160020160006101000a81548160ff0219169083151502179055506000600f828154811061287357fe5b9060005260206000209060040201600101819055506000600f828154811061289757fe5b9060005260206000209060040201600001819055506000600c600083815260200190815260200160002060006101000a81548173ffffffffffffffffffffffffffffffffffffffff021916908373ffffffffffffffffffffffffffffffffffffffff16021790555050565b600a6020528060005260406000206000915054906101000a900460ff1681565b50565b600061293b82600261326d90919063ffffffff16565b9050919050565b600033905090565b816004600083815260200190815260200160002060006101000a81548173ffffffffffffffffffffffffffffffffffffffff021916908373ffffffffffffffffffffffffffffffffffffffff160217905550808273ffffffffffffffffffffffffffffffffffffffff166129bd83611b4a565b73ffffffffffffffffffffffffffffffffffffffff167f8c5be1e5ebec7d5bd14f71427d1e84f3dd0314c0f7b2291e5b200ac8c7c3b92560405160405180910390a45050565b8273ffffffffffffffffffffffffffffffffffffffff16612a2382611b4a565b73ffffffffffffffffffffffffffffffffffffffff1614612a8f576040517f08c379a00000000000000000000000000000000000000000000000000000000081526004018080602001828103825260298152602001806140166029913960400191505060405180910390fd5b600073ffffffffffffffffffffffffffffffffffffffff168273ffffffffffffffffffffffffffffffffffffffff161415612b15576040517f08c379a0000000000000000000000000000000000000000000000000000000008152600401808060200182810382526024815260200180613ec76024913960400191505060405180910390fd5b612b20838383613287565b612b2b60008261294a565b612b7c81600160008673ffffffffffffffffffffffffffffffffffffffff1673ffffffffffffffffffffffffffffffffffffffff16815260200190815260200160002061328c90919063ffffffff16565b50612bce81600160008573ffffffffffffffffffffffffffffffffffffffff1673ffffffffffffffffffffffffffffffffffffffff1681526020019081526020016000206132a690919063ffffffff16565b50612be5818360026132c09092919063ffffffff16565b50808273ffffffffffffffffffffffffffffffffffffffff168473ffffffffffffffffffffffffffffffffffffffff167fddf252ad1be2c89b69c2b068fc378daa952ba7f163c4a11628f55a4df523b3ef60405160405180910390a4505050565b6000612c5182612925565b612ca6576040517f08c379a000000000000000000000000000000000000000000000000000000000815260040180806020018281038252602c815260200180613f11602c913960400191505060405180910390fd5b6000612cb183611b4a565b90508073ffffffffffffffffffffffffffffffffffffffff168473ffffffffffffffffffffffffffffffffffffffff161480612d2057508373ffffffffffffffffffffffffffffffffffffffff16612d08846114a1565b73ffffffffffffffffffffffffffffffffffffffff16145b80612d315750612d3081856126e3565b5b91505092915050565b600073ffffffffffffffffffffffffffffffffffffffff168273ffffffffffffffffffffffffffffffffffffffff161415612ddd576040517f08c379a00000000000000000000000000000000000000000000000000000000081526004018080602001828103825260208152602001807f4552433732313a206d696e7420746f20746865207a65726f206164647265737381525060200191505060405180910390fd5b612de681612925565b15612e59576040517f08c379a000000000000000000000000000000000000000000000000000000000815260040180806020018281038252601c8152602001807f4552433732313a20746f6b656e20616c7265616479206d696e7465640000000081525060200191505060405180910390fd5b612e6560008383613287565b612eb681600160008573ffffffffffffffffffffffffffffffffffffffff1673ffffffffffffffffffffffffffffffffffffffff1681526020019081526020016000206132a690919063ffffffff16565b50612ecd818360026132c09092919063ffffffff16565b50808273ffffffffffffffffffffffffffffffffffffffff16600073ffffffffffffffffffffffffffffffffffffffff167fddf252ad1be2c89b69c2b068fc378daa952ba7f163c4a11628f55a4df523b3ef60405160405180910390a45050565b600080600080612f4186600001866132f5565b915091508160001c8160001c8090509350935050509250929050565b6000612f70846000018460001b8461338e565b60001c90509392505050565b6000612f8a82600001613484565b9050919050565b612f9c848484612a03565b612fa884848484613495565b612ffd576040517f08c379a0000000000000000000000000000000000000000000000000000000008152600401808060200182810382526032815260200180613e956032913960400191505060405180910390fd5b50505050565b6060600082141561304b576040518060400160405280600181526020017f3000000000000000000000000000000000000000000000000000000000000000815250905061312e565b600082905060005b60008214613075578080600101915050600a828161306d57fe5b049150613053565b6060816040519080825280601f01601f1916602001820160405280156130aa5781602001600182028038833980820191505090505b50905060006001830390508593505b6000841461312657600a84816130cb57fe5b0660300160f81b828280600190039350815181106130e557fe5b60200101907effffffffffffffffffffffffffffffffffffffffffffffffffffffffffffff1916908160001a905350600a848161311e57fe5b0493506130b9565b819450505050505b919050565b600061313e82611b4a565b905061314c81600084613287565b61315760008361294a565b600060086000848152602001908152602001600020805460018160011615610100020316600290049050146131a6576008600083815260200190815260200160002060006131a59190613e27565b5b6131f782600160008473ffffffffffffffffffffffffffffffffffffffff1673ffffffffffffffffffffffffffffffffffffffff16815260200190815260200160002061328c90919063ffffffff16565b5061320c8260026136da90919063ffffffff16565b5081600073ffffffffffffffffffffffffffffffffffffffff168273ffffffffffffffffffffffffffffffffffffffff167fddf252ad1be2c89b69c2b068fc378daa952ba7f163c4a11628f55a4df523b3ef60405160405180910390a45050565b600061327f836000018360001b6136f4565b905092915050565b505050565b600061329e836000018360001b613717565b905092915050565b60006132b8836000018360001b6137ff565b905092915050565b60006132ec846000018460001b8473ffffffffffffffffffffffffffffffffffffffff1660001b61386f565b90509392505050565b60008082846000018054905011613357576040517f08c379a0000000000000000000000000000000000000000000000000000000008152600401808060200182810382526022815260200180613fc86022913960400191505060405180910390fd5b600084600001848154811061336857fe5b906000526020600020906002020190508060000154816001015492509250509250929050565b60008084600101600085815260200190815260200160002054905060008114158390613455576040517f08c379a00000000000000000000000000000000000000000000000000000000081526004018080602001828103825283818151815260200191508051906020019080838360005b8381101561341a5780820151818401526020810190506133ff565b50505050905090810190601f1680156134475780820380516001836020036101000a031916815260200191505b509250505060405180910390fd5b5084600001600182038154811061346857fe5b9060005260206000209060020201600101549150509392505050565b600081600001805490509050919050565b60006134b68473ffffffffffffffffffffffffffffffffffffffff1661394b565b6134c357600190506136d2565b606061365963150b7a0260e01b6134d8612942565b888787604051602401808573ffffffffffffffffffffffffffffffffffffffff1673ffffffffffffffffffffffffffffffffffffffff1681526020018473ffffffffffffffffffffffffffffffffffffffff1673ffffffffffffffffffffffffffffffffffffffff16815260200183815260200180602001828103825283818151815260200191508051906020019080838360005b8381101561358857808201518184015260208101905061356d565b50505050905090810190601f1680156135b55780820380516001836020036101000a031916815260200191505b5095505050505050604051602081830303815290604052907bffffffffffffffffffffffffffffffffffffffffffffffffffffffff19166020820180517bffffffffffffffffffffffffffffffffffffffffffffffffffffffff8381831617835250505050604051806060016040528060328152602001613e95603291398773ffffffffffffffffffffffffffffffffffffffff1661395e9092919063ffffffff16565b9050600081806020019051602081101561367257600080fd5b8101908080519060200190929190505050905063150b7a0260e01b7bffffffffffffffffffffffffffffffffffffffffffffffffffffffff1916817bffffffffffffffffffffffffffffffffffffffffffffffffffffffff191614925050505b949350505050565b60006136ec836000018360001b613976565b905092915050565b600080836001016000848152602001908152602001600020541415905092915050565b600080836001016000848152602001908152602001600020549050600081146137f3576000600182039050600060018660000180549050039050600086600001828154811061376257fe5b906000526020600020015490508087600001848154811061377f57fe5b90600052602060002001819055506001830187600101600083815260200190815260200160002081905550866000018054806137b757fe5b600190038181906000526020600020016000905590558660010160008781526020019081526020016000206000905560019450505050506137f9565b60009150505b92915050565b600061380b8383613a8f565b613864578260000182908060018154018082558091505060019003906000526020600020016000909190919091505582600001805490508360010160008481526020019081526020016000208190555060019050613869565b600090505b92915050565b600080846001016000858152602001908152602001600020549050600081141561391657846000016040518060400160405280868152602001858152509080600181540180825580915050600190039060005260206000209060020201600090919091909150600082015181600001556020820151816001015550508460000180549050856001016000868152602001908152602001600020819055506001915050613944565b8285600001600183038154811061392957fe5b90600052602060002090600202016001018190555060009150505b9392505050565b600080823b905060008111915050919050565b606061396d8484600085613ab2565b90509392505050565b60008083600101600084815260200190815260200160002054905060008114613a8357600060018203905060006001866000018054905003905060008660000182815481106139c157fe5b90600052602060002090600202019050808760000184815481106139e157fe5b9060005260206000209060020201600082015481600001556001820154816001015590505060018301876001016000836000015481526020019081526020016000208190555086600001805480613a3457fe5b6001900381819060005260206000209060020201600080820160009055600182016000905550509055866001016000878152602001908152602001600020600090556001945050505050613a89565b60009150505b92915050565b600080836001016000848152602001908152602001600020541415905092915050565b606082471015613b0d576040517f08c379a0000000000000000000000000000000000000000000000000000000008152600401808060200182810382526026815260200180613eeb6026913960400191505060405180910390fd5b613b168561394b565b613b88576040517f08c379a000000000000000000000000000000000000000000000000000000000815260040180806020018281038252601d8152602001807f416464726573733a2063616c6c20746f206e6f6e2d636f6e747261637400000081525060200191505060405180910390fd5b600060608673ffffffffffffffffffffffffffffffffffffffff1685876040518082805190602001908083835b60208310613bd85780518252602082019150602081019050602083039250613bb5565b6001836020036101000a03801982511681845116808217855250505050505090500191505060006040518083038185875af1925050503d8060008114613c3a576040519150601f19603f3d011682016040523d82523d6000602084013e613c3f565b606091505b5091509150613c4f828286613c5b565b92505050949350505050565b60608315613c6b57829050613d20565b600083511115613c7e5782518084602001fd5b816040517f08c379a00000000000000000000000000000000000000000000000000000000081526004018080602001828103825283818151815260200191508051906020019080838360005b83811015613ce5578082015181840152602081019050613cca565b50505050905090810190601f168015613d125780820380516001836020036101000a031916815260200191505b509250505060405180910390fd5b9392505050565b828054600181600116156101000203166002900490600052602060002090601f016020900481019282601f10613d6857805160ff1916838001178555613d96565b82800160010185558215613d96579182015b82811115613d95578251825591602001919060010190613d7a565b5b509050613da39190613e6f565b5090565b828054600181600116156101000203166002900490600052602060002090601f016020900481019282601f10613de857805160ff1916838001178555613e16565b82800160010185558215613e16579182015b82811115613e15578251825591602001919060010190613dfa565b5b509050613e239190613e6f565b5090565b50805460018160011615610100020316600290046000825580601f10613e4d5750613e6c565b601f016020900490600052602060002090810190613e6b9190613e6f565b5b50565b613e9191905b80821115613e8d576000816000905550600101613e75565b5090565b9056fe4552433732313a207472616e7366657220746f206e6f6e20455243373231526563656976657220696d706c656d656e7465724552433732313a207472616e7366657220746f20746865207a65726f2061646472657373416464726573733a20696e73756666696369656e742062616c616e636520666f722063616c6c4552433732313a206f70657261746f7220717565727920666f72206e6f6e6578697374656e7420746f6b656e4552433732313a20617070726f76652063616c6c6572206973206e6f74206f776e6572206e6f7220617070726f76656420666f7220616c6c4552433732313a2062616c616e636520717565727920666f7220746865207a65726f20616464726573734552433732313a206f776e657220717565727920666f72206e6f6e6578697374656e7420746f6b656e456e756d657261626c654d61703a20696e646578206f7574206f6620626f756e64734552433732313a20617070726f76656420717565727920666f72206e6f6e6578697374656e7420746f6b656e4552433732313a207472616e73666572206f6620746f6b656e2074686174206973206e6f74206f776e4552433732314d657461646174613a2055524920717565727920666f72206e6f6e6578697374656e7420746f6b656e4552433732313a20617070726f76616c20746f2063757272656e74206f776e65724552433732313a207472616e736665722063616c6c6572206973206e6f74206f776e6572206e6f7220617070726f766564a264697066735822122058d38a3727d7572d82b917f96e3368f282034d69cd565a88acfd4bfe1304b41964736f6c63430006020033",
  "source": "pragma solidity ^0.6.0;\r\nimport \"@openzeppelin/contracts/token/ERC721/ERC721.sol\";\r\nimport \"./IExerciceSolution.sol\";\r\n\r\n\r\ncontract ExerciceSolution is IExerciceSolution , ERC721\r\n{\r\n    constructor() ERC721(\"LucasNFT\", \"LFT\") public {}\r\n\r\n    event NewAnimal(uint sex, uint legs, bool wings, string name);\r\n\r\n    mapping(address => bool) public isAuthorized;\r\n\r\n    mapping(address => uint) public ownerToId;\r\n\r\n    mapping(uint => address) public idToOwner;\r\n\r\n    mapping(uint => uint) public priceOfAnimal;\r\n\r\n    mapping(uint => bool)public isForSale;\r\n\r\n    struct Animal{\r\n        uint sex;\r\n        uint legs;\r\n        bool wings;\r\n        string name;\r\n    }\r\n    \r\n    Animal[] public animals;\r\n\r\n    // mapping (address => EnumerableSet.UintSet) private _holderTokens;\r\n    // EnumerableMap.UintToAddressMap private _tokenOwners;\r\n\r\n\t// Breeding function\r\n\tfunction isBreeder(address account) external override returns (bool){\r\n        isAuthorized[account] = true;\r\n        return(isAuthorized[account]);\r\n    }\r\n\r\n\tfunction registrationPrice() external override returns (uint256){\r\n        return 1;\r\n    }\r\n\r\n\tfunction registerMeAsBreeder() external override payable{\r\n        require(msg.value == 1);\r\n        isAuthorized[msg.sender] = true;\r\n    }\r\n\r\n    function totalSupply() public view virtual override returns (uint256) {\r\n        return 10;\r\n    }\r\n\r\n\tfunction declareAnimal(uint sex, uint legs, bool wings, string calldata name) external override returns (uint256){\r\n        require(isAuthorized[msg.sender] == true);\r\n        animals.push(Animal(sex, legs, wings, name));\r\n        uint id = animals.length-1;\r\n        _mint(msg.sender, id);\r\n        ownerToId[msg.sender] = id;\r\n        idToOwner[id] = msg.sender;\r\n        emit NewAnimal(sex, legs, wings, name);\r\n        return id;\r\n    }\r\n\r\n\r\n\tfunction getAnimalCharacteristics(uint animalNumber) external override returns (string memory _name, bool _wings, uint _legs, uint _sex){\r\n        _name = animals[animalNumber].name;\r\n        _wings = animals[animalNumber].wings;\r\n        _legs = animals[animalNumber].legs;\r\n        _sex = animals[animalNumber].sex;\r\n        return(_name, _wings, _legs, _sex);\r\n    }\r\n\r\n\tfunction declareDeadAnimal(uint animalNumber) external override{\r\n        require(msg.sender == idToOwner[animalNumber]);\r\n        _burn(animalNumber);\r\n        animals[animalNumber].name = \"\";\r\n        animals[animalNumber].wings = false;\r\n        animals[animalNumber].legs = 0;\r\n        animals[animalNumber].sex = 0;\r\n        idToOwner[animalNumber] = 0x0000000000000000000000000000000000000000;\r\n    }\r\n\r\n\tfunction tokenOfOwnerByIndex(address owner, uint256 index) public view override(ERC721, IExerciceSolution) returns (uint256){\r\n        return ownerToId[owner];\r\n    }\r\n\r\n\t// Selling functions\r\n\tfunction isAnimalForSale(uint animalNumber) external view override returns (bool){\r\n        return isForSale[animalNumber];\r\n    }\r\n\r\n\tfunction animalPrice(uint animalNumber) external view override returns (uint256){\r\n        return priceOfAnimal[animalNumber];\r\n    }\r\n\r\n\tfunction buyAnimal(uint animalNumber) external payable override{\r\n        require(isForSale[animalNumber] == true);\r\n        require(priceOfAnimal[animalNumber] == msg.value);\r\n        address owner = idToOwner[animalNumber];\r\n        _transfer(owner ,msg.sender, animalNumber);\r\n    }\r\n\r\n\tfunction offerForSale(uint animalNumber, uint price) external override{\r\n        require(msg.sender == idToOwner[animalNumber]);\r\n        priceOfAnimal[animalNumber] = price;\r\n        isForSale[animalNumber] = true;\r\n    }\r\n\t// Reproduction functions\r\n\r\n\tfunction declareAnimalWithParents(uint sex, uint legs, bool wings, string calldata name, uint parent1, uint parent2) external override returns (uint256){\r\n\r\n    }\r\n\r\n\tfunction getParents(uint animalNumber) external override returns (uint256, uint256){\r\n\r\n    }\r\n\r\n\tfunction canReproduce(uint animalNumber) external override returns (bool){\r\n\r\n    }\r\n\r\n\tfunction reproductionPrice(uint animalNumber) external view override returns (uint256){\r\n\r\n    }\r\n\r\n\tfunction offerForReproduction(uint animalNumber, uint priceOfReproduction) external override returns (uint256){\r\n\r\n    }\r\n\r\n\tfunction authorizedBreederToReproduce(uint animalNumber) external override returns (address){\r\n\r\n    }\r\n\r\n\tfunction payForReproduction(uint animalNumber) external payable override{\r\n\r\n    }\r\n}\r\n",
  "sourcePath": "C:\\Users\\Admin\\OneDrive - De Vinci\\Pictures\\Documents\\Esilv\\A4\\Blockchain Programming\\TD6_ERC720\\erc721-101\\contracts\\ExerciceSolution.sol",
  "compiler": {
    "name": "solc",
    "version": "0.6.2+commit.bacdbe57.Emscripten.clang"
  },
  "schemaVersion": "3.4.11",
  "updatedAt": "2022-11-30T12:59:53.068Z",
  "networkType": "ethereum",
  "devdoc": {
    "methods": {
      "approve(address,uint256)": {
        "details": "See {IERC721-approve}."
      },
      "balanceOf(address)": {
        "details": "See {IERC721-balanceOf}."
      },
      "baseURI()": {
        "details": "Returns the base URI set via {_setBaseURI}. This will be automatically added as a prefix in {tokenURI} to each token's URI, or to the token ID if no specific URI is set for that token ID."
      },
      "getApproved(uint256)": {
        "details": "See {IERC721-getApproved}."
      },
      "isApprovedForAll(address,address)": {
        "details": "See {IERC721-isApprovedForAll}."
      },
      "name()": {
        "details": "See {IERC721Metadata-name}."
      },
      "ownerOf(uint256)": {
        "details": "See {IERC721-ownerOf}."
      },
      "safeTransferFrom(address,address,uint256)": {
        "details": "See {IERC721-safeTransferFrom}."
      },
      "safeTransferFrom(address,address,uint256,bytes)": {
        "details": "See {IERC721-safeTransferFrom}."
      },
      "setApprovalForAll(address,bool)": {
        "details": "See {IERC721-setApprovalForAll}."
      },
      "supportsInterface(bytes4)": {
        "details": "See {IERC165-supportsInterface}.     * Time complexity O(1), guaranteed to always use less than 30 000 gas."
      },
      "symbol()": {
        "details": "See {IERC721Metadata-symbol}."
      },
      "tokenByIndex(uint256)": {
        "details": "See {IERC721Enumerable-tokenByIndex}."
      },
      "tokenURI(uint256)": {
        "details": "See {IERC721Metadata-tokenURI}."
      },
      "transferFrom(address,address,uint256)": {
        "details": "See {IERC721-transferFrom}."
      }
    }
  },
  "userdoc": {
    "methods": {}
  }
}